{
  "_format": "hh-sol-artifact-1",
  "contractName": "BeerWall",
  "sourceName": "contracts/BeerWall.sol",
  "abi": [
    {
      "inputs": [],
      "stateMutability": "nonpayable",
      "type": "constructor"
    },
    {
      "anonymous": false,
      "inputs": [
        {
          "indexed": false,
          "internalType": "address",
          "name": "beerGivenBy",
          "type": "address"
        },
        {
          "indexed": false,
          "internalType": "string",
          "name": "message",
          "type": "string"
        }
      ],
      "name": "BeerGiven",
      "type": "event"
    },
    {
      "anonymous": false,
      "inputs": [
        {
          "indexed": false,
          "internalType": "address",
          "name": "beerTakenBy",
          "type": "address"
        },
        {
          "indexed": false,
          "internalType": "address",
          "name": "beerGivenBy",
          "type": "address"
        },
        {
          "indexed": false,
          "internalType": "string",
          "name": "giverMessage",
          "type": "string"
        }
      ],
      "name": "BeerTaken",
      "type": "event"
    },
    {
      "inputs": [],
      "name": "getBeers",
      "outputs": [
        {
          "components": [
            {
              "internalType": "address",
              "name": "giver",
              "type": "address"
            },
            {
              "internalType": "string",
              "name": "message",
              "type": "string"
            }
          ],
          "internalType": "struct BeerWall.Beer[]",
          "name": "",
          "type": "tuple[]"
        }
      ],
      "stateMutability": "view",
      "type": "function"
    },
    {
      "inputs": [
        {
          "internalType": "address",
          "name": "_address",
          "type": "address"
        }
      ],
      "name": "getResultsOfAddress",
      "outputs": [
        {
          "internalType": "uint256",
          "name": "",
          "type": "uint256"
        },
        {
          "internalType": "uint256",
          "name": "",
          "type": "uint256"
        }
      ],
      "stateMutability": "view",
      "type": "function"
    },
    {
      "inputs": [],
      "name": "getTopBeerGiverAndAmount",
      "outputs": [
        {
          "internalType": "address",
          "name": "",
          "type": "address"
        },
        {
          "internalType": "uint256",
          "name": "",
          "type": "uint256"
        }
      ],
      "stateMutability": "view",
      "type": "function"
    },
    {
      "inputs": [],
      "name": "getTopBeerTakerAndAmount",
      "outputs": [
        {
          "internalType": "address",
          "name": "",
          "type": "address"
        },
        {
          "internalType": "uint256",
          "name": "",
          "type": "uint256"
        }
      ],
      "stateMutability": "view",
      "type": "function"
    },
    {
      "inputs": [],
      "name": "getTotalBeers",
      "outputs": [
        {
          "internalType": "uint256",
          "name": "",
          "type": "uint256"
        }
      ],
      "stateMutability": "view",
      "type": "function"
    },
    {
      "inputs": [
        {
          "internalType": "string",
          "name": "_message",
          "type": "string"
        }
      ],
      "name": "giveBeer",
      "outputs": [],
      "stateMutability": "nonpayable",
      "type": "function"
    },
    {
      "inputs": [],
      "name": "takeBeer",
      "outputs": [],
      "stateMutability": "nonpayable",
      "type": "function"
    }
  ],
  "bytecode": "0x60806040523480156200001157600080fd5b5060005b600a8110156200012857600660405180604001604052803373ffffffffffffffffffffffffffffffffffffffff1681526020016040518060400160405280601281526020017f466972737420726f756e64206f6e206d65210000000000000000000000000000815250815250908060018154018082558091505060019003906000526020600020906002020160009091909190915060008201518160000160006101000a81548173ffffffffffffffffffffffffffffffffffffffff021916908373ffffffffffffffffffffffffffffffffffffffff16021790555060208201518160010190805190602001906200010f9291906200024a565b50505080806200011f9062000412565b91505062000015565b50620001686040518060600160405280603a815260200162001dcc603a9139620001576200016e60201b60201c565b6200017b60201b620008491760201c565b620004cf565b6000600680549050905090565b6200021d8282604051602401620001949291906200034c565b6040516020818303038152906040527f9710a9d0000000000000000000000000000000000000000000000000000000007bffffffffffffffffffffffffffffffffffffffffffffffffffffffff19166020820180517bffffffffffffffffffffffffffffffffffffffffffffffffffffffff83818316178352505050506200022160201b60201c565b5050565b60008151905060006a636f6e736f6c652e6c6f679050602083016000808483855afa5050505050565b8280546200025890620003dc565b90600052602060002090601f0160209004810192826200027c5760008555620002c8565b82601f106200029757805160ff1916838001178555620002c8565b82800160010185558215620002c8579182015b82811115620002c7578251825591602001919060010190620002aa565b5b509050620002d79190620002db565b5090565b5b80821115620002f6576000816000905550600101620002dc565b5090565b6000620003078262000380565b6200031381856200038b565b935062000325818560208601620003a6565b6200033081620004be565b840191505092915050565b62000346816200039c565b82525050565b60006040820190508181036000830152620003688185620002fa565b90506200037960208301846200033b565b9392505050565b600081519050919050565b600082825260208201905092915050565b6000819050919050565b60005b83811015620003c6578082015181840152602081019050620003a9565b83811115620003d6576000848401525b50505050565b60006002820490506001821680620003f557607f821691505b602082108114156200040c576200040b6200048f565b5b50919050565b60006200041f826200039c565b91507fffffffffffffffffffffffffffffffffffffffffffffffffffffffffffffffff82141562000455576200045462000460565b5b600182019050919050565b7f4e487b7100000000000000000000000000000000000000000000000000000000600052601160045260246000fd5b7f4e487b7100000000000000000000000000000000000000000000000000000000600052602260045260246000fd5b6000601f19601f8301169050919050565b6118ed80620004df6000396000f3fe608060405234801561001057600080fd5b506004361061007d5760003560e01c8063997cac981161005b578063997cac98146100dc578063b4a20505146100fa578063efff97d414610116578063f93a06da146101345761007d565b80632064b23e146100825780636bbd95dd146100b3578063849b1fbc146100bd575b600080fd5b61009c600480360381019061009791906110b8565b610153565b6040516100aa92919061158f565b60405180910390f35b6100bb6101df565b005b6100c56103aa565b6040516100d3929190611499565b60405180910390f35b6100e4610437565b6040516100f191906114c2565b60405180910390f35b610114600480360381019061010f91906110e1565b61057e565b005b61011e6107ac565b60405161012b9190611574565b60405180910390f35b61013c6107b9565b60405161014a929190611499565b60405180910390f35b600080600360008473ffffffffffffffffffffffffffffffffffffffff1673ffffffffffffffffffffffffffffffffffffffff16815260200190815260200160002054600260008573ffffffffffffffffffffffffffffffffffffffff1673ffffffffffffffffffffffffffffffffffffffff1681526020019081526020016000205491509150915091565b600060068054905011610227576040517f08c379a000000000000000000000000000000000000000000000000000000000815260040161021e90611534565b60405180910390fd5b4261012c600560003373ffffffffffffffffffffffffffffffffffffffff1673ffffffffffffffffffffffffffffffffffffffff16815260200190815260200160002054610275919061167f565b106102b5576040517f08c379a00000000000000000000000000000000000000000000000000000000081526004016102ac90611554565b60405180910390fd5b42600560003373ffffffffffffffffffffffffffffffffffffffff1673ffffffffffffffffffffffffffffffffffffffff168152602001908152602001600020819055506001600360003373ffffffffffffffffffffffffffffffffffffffff1673ffffffffffffffffffffffffffffffffffffffff1681526020019081526020016000206000828254610349919061167f565b925050819055506103586108e5565b60006103626109d1565b90507fb068bbe3b93ccd8e05962e169de4b91442483979d511524cb01211c5a6376ad2338260000151836020015160405161039f9392919061142b565b60405180910390a150565b60008060008054906101000a900473ffffffffffffffffffffffffffffffffffffffff16600260008060009054906101000a900473ffffffffffffffffffffffffffffffffffffffff1673ffffffffffffffffffffffffffffffffffffffff1673ffffffffffffffffffffffffffffffffffffffff16815260200190815260200160002054915091509091565b60606006805480602002602001604051908101604052809291908181526020016000905b8282101561057557838290600052602060002090600202016040518060400160405290816000820160009054906101000a900473ffffffffffffffffffffffffffffffffffffffff1673ffffffffffffffffffffffffffffffffffffffff1673ffffffffffffffffffffffffffffffffffffffff1681526020016001820180546104e490611787565b80601f016020809104026020016040519081016040528092919081815260200182805461051090611787565b801561055d5780601f106105325761010080835404028352916020019161055d565b820191906000526020600020905b81548152906001019060200180831161054057829003601f168201915b5050505050815250508152602001906001019061045b565b50505050905090565b426078600460003373ffffffffffffffffffffffffffffffffffffffff1673ffffffffffffffffffffffffffffffffffffffff168152602001908152602001600020546105cb919061167f565b1061060b576040517f08c379a000000000000000000000000000000000000000000000000000000000815260040161060290611514565b60405180910390fd5b42600460003373ffffffffffffffffffffffffffffffffffffffff1673ffffffffffffffffffffffffffffffffffffffff168152602001908152602001600020819055506000339050600660405180604001604052808373ffffffffffffffffffffffffffffffffffffffff16815260200184815250908060018154018082558091505060019003906000526020600020906002020160009091909190915060008201518160000160006101000a81548173ffffffffffffffffffffffffffffffffffffffff021916908373ffffffffffffffffffffffffffffffffffffffff160217905550602082015181600101908051906020019061070d929190610e9b565b5050506001600260008373ffffffffffffffffffffffffffffffffffffffff1673ffffffffffffffffffffffffffffffffffffffff1681526020019081526020016000206000828254610760919061167f565b925050819055507f627e57595ee1b9bbc1f122e1c2f7b5c453faba89908479b5618802aa4978bc788183604051610798929190611469565b60405180910390a16107a8610b60565b5050565b6000600680549050905090565b600080600160009054906101000a900473ffffffffffffffffffffffffffffffffffffffff1660036000600160009054906101000a900473ffffffffffffffffffffffffffffffffffffffff1673ffffffffffffffffffffffffffffffffffffffff1673ffffffffffffffffffffffffffffffffffffffff16815260200190815260200160002054915091509091565b6108e1828260405160240161085f9291906114e4565b6040516020818303038152906040527f9710a9d0000000000000000000000000000000000000000000000000000000007bffffffffffffffffffffffffffffffffffffffffffffffffffffffff19166020820180517bffffffffffffffffffffffffffffffffffffffffffffffffffffffff8381831617835250505050610c4a565b5050565b60036000600160009054906101000a900473ffffffffffffffffffffffffffffffffffffffff1673ffffffffffffffffffffffffffffffffffffffff1673ffffffffffffffffffffffffffffffffffffffff16815260200190815260200160002054600360003373ffffffffffffffffffffffffffffffffffffffff1673ffffffffffffffffffffffffffffffffffffffff1681526020019081526020016000205411156109cf5733600160006101000a81548173ffffffffffffffffffffffffffffffffffffffff021916908373ffffffffffffffffffffffffffffffffffffffff1602179055505b565b6109d9610f21565b60006006600081548110610a16577f4e487b7100000000000000000000000000000000000000000000000000000000600052603260045260246000fd5b90600052602060002090600202016040518060400160405290816000820160009054906101000a900473ffffffffffffffffffffffffffffffffffffffff1673ffffffffffffffffffffffffffffffffffffffff1673ffffffffffffffffffffffffffffffffffffffff168152602001600182018054610a9590611787565b80601f0160208091040260200160405190810160405280929190818152602001828054610ac190611787565b8015610b0e5780601f10610ae357610100808354040283529160200191610b0e565b820191906000526020600020905b815481529060010190602001808311610af157829003601f168201915b505050505081525050905060006040518060400160405280836000015173ffffffffffffffffffffffffffffffffffffffff16815260200183602001518152509050610b58610c73565b809250505090565b600260008060009054906101000a900473ffffffffffffffffffffffffffffffffffffffff1673ffffffffffffffffffffffffffffffffffffffff1673ffffffffffffffffffffffffffffffffffffffff16815260200190815260200160002054600260003373ffffffffffffffffffffffffffffffffffffffff1673ffffffffffffffffffffffffffffffffffffffff168152602001908152602001600020541115610c4857336000806101000a81548173ffffffffffffffffffffffffffffffffffffffff021916908373ffffffffffffffffffffffffffffffffffffffff1602179055505b565b60008151905060006a636f6e736f6c652e6c6f679050602083016000808483855afa5050505050565b600060068054905011610cbb576040517f08c379a0000000000000000000000000000000000000000000000000000000008152600401610cb290611534565b60405180910390fd5b60005b6001600680549050610cd091906116d5565b811015610e10576006600182610ce6919061167f565b81548110610d1d577f4e487b7100000000000000000000000000000000000000000000000000000000600052603260045260246000fd5b906000526020600020906002020160068281548110610d65577f4e487b7100000000000000000000000000000000000000000000000000000000600052603260045260246000fd5b90600052602060002090600202016000820160009054906101000a900473ffffffffffffffffffffffffffffffffffffffff168160000160006101000a81548173ffffffffffffffffffffffffffffffffffffffff021916908373ffffffffffffffffffffffffffffffffffffffff1602179055506001820181600101908054610dee90611787565b610df9929190610f51565b509050508080610e08906117b9565b915050610cbe565b506006805480610e49577f4e487b7100000000000000000000000000000000000000000000000000000000600052603160045260246000fd5b6001900381819060005260206000209060020201600080820160006101000a81549073ffffffffffffffffffffffffffffffffffffffff0219169055600182016000610e959190610fde565b50509055565b828054610ea790611787565b90600052602060002090601f016020900481019282610ec95760008555610f10565b82601f10610ee257805160ff1916838001178555610f10565b82800160010185558215610f10579182015b82811115610f0f578251825591602001919060010190610ef4565b5b509050610f1d919061101e565b5090565b6040518060400160405280600073ffffffffffffffffffffffffffffffffffffffff168152602001606081525090565b828054610f5d90611787565b90600052602060002090601f016020900481019282610f7f5760008555610fcd565b82601f10610f905780548555610fcd565b82800160010185558215610fcd57600052602060002091601f016020900482015b82811115610fcc578254825591600101919060010190610fb1565b5b509050610fda919061101e565b5090565b508054610fea90611787565b6000825580601f10610ffc575061101b565b601f01602090049060005260206000209081019061101a919061101e565b5b50565b5b8082111561103757600081600090555060010161101f565b5090565b600061104e611049846115e9565b6115b8565b90508281526020810184848401111561106657600080fd5b611071848285611745565b509392505050565b600081359050611088816118a0565b92915050565b600082601f83011261109f57600080fd5b81356110af84826020860161103b565b91505092915050565b6000602082840312156110ca57600080fd5b60006110d884828501611079565b91505092915050565b6000602082840312156110f357600080fd5b600082013567ffffffffffffffff81111561110d57600080fd5b6111198482850161108e565b91505092915050565b600061112e83836113df565b905092915050565b61113f81611709565b82525050565b61114e81611709565b82525050565b600061115f82611629565b611169818561164c565b93508360208202850161117b85611619565b8060005b858110156111b757848403895281516111988582611122565b94506111a38361163f565b925060208a0199505060018101905061117f565b50829750879550505050505092915050565b60006111d482611634565b6111de818561165d565b93506111ee818560208601611754565b6111f78161188f565b840191505092915050565b600061120d82611634565b611217818561166e565b9350611227818560208601611754565b6112308161188f565b840191505092915050565b6000611248604e8361166e565b91507f596f75722067656e65726f7369747920697320657069632c2062757420796f7560008301527f2073686f756c64206c6574206f746865722070656f706c6520646f6e6174652060208301527f62656572732061732077656c6c2e0000000000000000000000000000000000006040830152606082019050919050565b60006112d4605a8361166e565b91507f536f727279206d3821204e6f20626565727320617265206c656674203a27282060008301527f4d6179626520636f6e736964657220676976696e672061206265657220666f7260208301527f20736f6d656f6e6520746f20656e6a6f79206c61746572203b290000000000006040830152606082019050919050565b600061136060518361166e565b91507f536c6f7720646f776e20706172746e6572212049206b6e6f772074686579277260008301527f6520667265652c2062757420776169742035206d696e75746573206265666f7260208301527f6520686176696e6720616e6f746865722e0000000000000000000000000000006040830152606082019050919050565b60006040830160008301516113f76000860182611136565b506020830151848203602086015261140f82826111c9565b9150508091505092915050565b6114258161173b565b82525050565b60006060820190506114406000830186611145565b61144d6020830185611145565b818103604083015261145f8184611202565b9050949350505050565b600060408201905061147e6000830185611145565b81810360208301526114908184611202565b90509392505050565b60006040820190506114ae6000830185611145565b6114bb602083018461141c565b9392505050565b600060208201905081810360008301526114dc8184611154565b905092915050565b600060408201905081810360008301526114fe8185611202565b905061150d602083018461141c565b9392505050565b6000602082019050818103600083015261152d8161123b565b9050919050565b6000602082019050818103600083015261154d816112c7565b9050919050565b6000602082019050818103600083015261156d81611353565b9050919050565b6000602082019050611589600083018461141c565b92915050565b60006040820190506115a4600083018561141c565b6115b1602083018461141c565b9392505050565b6000604051905081810181811067ffffffffffffffff821117156115df576115de611860565b5b8060405250919050565b600067ffffffffffffffff82111561160457611603611860565b5b601f19601f8301169050602081019050919050565b6000819050602082019050919050565b600081519050919050565b600081519050919050565b6000602082019050919050565b600082825260208201905092915050565b600082825260208201905092915050565b600082825260208201905092915050565b600061168a8261173b565b91506116958361173b565b9250827fffffffffffffffffffffffffffffffffffffffffffffffffffffffffffffffff038211156116ca576116c9611802565b5b828201905092915050565b60006116e08261173b565b91506116eb8361173b565b9250828210156116fe576116fd611802565b5b828203905092915050565b60006117148261171b565b9050919050565b600073ffffffffffffffffffffffffffffffffffffffff82169050919050565b6000819050919050565b82818337600083830152505050565b60005b83811015611772578082015181840152602081019050611757565b83811115611781576000848401525b50505050565b6000600282049050600182168061179f57607f821691505b602082108114156117b3576117b2611831565b5b50919050565b60006117c48261173b565b91507fffffffffffffffffffffffffffffffffffffffffffffffffffffffffffffffff8214156117f7576117f6611802565b5b600182019050919050565b7f4e487b7100000000000000000000000000000000000000000000000000000000600052601160045260246000fd5b7f4e487b7100000000000000000000000000000000000000000000000000000000600052602260045260246000fd5b7f4e487b7100000000000000000000000000000000000000000000000000000000600052604160045260246000fd5b6000601f19601f8301169050919050565b6118a981611709565b81146118b457600080fd5b5056fea26469706673582212203325dad2b515a8d7041248412452c699b784fcd4df653896270728414889c37864736f6c63430008000033426565722077616c6c206372656174656421205468657265206172652063757272656e746c7920257320626565727320617661696c61626c652e",
  "linkReferences": {},
  "deployedLinkReferences": {}
}